:10000000D040002001E80000A5000000A50000008D
:1000100000000000000000000000000000000000E0
:10002000000000000000000000000000A50000002B
:100030000000000000000000A5000000A500000076
:10004000A5000000A5000000A5000000A50000001C
:10005000A5000000A5000000A5000000A50000000C
:10006000A5000000A5000000A5000000A5000000FC
:10007000A5000000A5000000A5000000A5000000EC
:10008000A5000000A5000000A5000000A5000000DC
:10009000A5000000A5000000A5000000A5000000CC
:1000A000A500000010B5014B984710BD01E8000005
:10400000D040002001E80000F1E70000F1E70000E7
:1040100000000000000000000000000000000000A0
:1040200000000000000000000000000001E90000A6
:10403000000000000000000065E90000A9E90000A0
:10404000F1E70000F1E70000F1E70000F1E7000010
:10405000EDD30000F1E7000061F8000099DC0000FA
:10406000A9DC0000B9DC0000C9DC0000D9DC0000DC
:10407000E9DC0000F1E70000F1E70000F1E70000F3
:10408000F1E70000F1E7000031C60000F1E70000B1
:10409000F1E70000F1E70000F1E70000F1E70000C0
:1040A000F1E7000010B5064C2378002B07D1054B33
:1040B000002B02D0044800E000BF0123237010BD94
:1040C000300B002000000000B0000000084B10B5CD
:1040D000002B03D00749084800E000BF07480368E9
:1040E000002B00D110BD064B002BFBD09847F9E701
:1040F00000000000340B0020B000000074FE01003E
:1041000000000000F0B585B0040001910292039315
:104110000AAB1D880BAB1E880CAB1888184F1822F1
:1041200000230021B84732000023801859413C2267
:104130000023B8472A000023801859413C2200235D
:10414000B847039A002380185941FA2292000023AD
:10415000B847029A002380185941FA22920000239E
:10416000B847019A002380185941002C01DB05B0A3
:10417000F0BD03000C0000215842A141F7E7C04602
:10418000CD410100F0B5C64600B580460D001600D1
:10419000424B9A421CD94B1E9BB20B2B1FD80327B4
:1041A000174042D1642110003D4B984789B2002945
:1041B00023D19131FF313000394B984789B2002922
:1041C0001BD02C00013D6D00364BED5A45441AE0E2
:1041D0000122354B1A8001204042C1175BE00122C9
:1041E000314B1A8001204042C11754E001222E4B6E
:1041F0001A8001204042C1174DE02C000C356D00A3
:10420000284BED5A454464213000254B984789B22C
:104210000122002910D19131FF313000204B984705
:1042200089B20122002907D005E00C004B1E5B007B
:104230001C4A9D5A4544002253009B189B009B1822
:104240001B195B00174A9B5AAB42CFDBB4087B4279
:104250005F41E41B19212000144B984707001921E6
:104260002000134B9847C90F781A241A8010201881
:10427000E538FF380F4B9C4666446E24FF34664396
:10428000801940190138C1170B4C0C4A0023A04774
:104290000B4A0023A04704BC9046F0BDCF070000A6
:1042A000B53E010028E401004C0B0020BD3E01009A
:1042B0008940010030F8FFFFCD410100805101002D
:1042C00040420F00F0B585B0009001910292039337
:1042D0000AAB1F880BAB18880CAB19880DAB1A887A
:1042E000144B984704000D00134E3C220023380065
:1042F0000021B047039A0023801859413C22002333
:10430000B047029A002380185941FA2292000023F4
:10431000B047019A002380185941FA2292000023E5
:10432000B04700196941009C00250019694105B09A
:10433000F0BDC04685410000CD410100F0B5CE463C
:10434000474680B583B004000D009046504EFA22D7
:1043500092000023B04743461A80FA2292000023BD
:1043600020002900B047FA2292000023B0474346BC
:104370005A80484A002320002900B0473C220023ED
:10438000B04743469A80444A002320002900B047A2
:104390003C220023B0474346DA80404A00232000F5
:1043A0002900B04718220023B04743461A813C4AEF
:1043B000142320002900B04700900191394A3A4B5C
:1043C00020002900B04783009946384A002300980E
:1043D0000199B0470092002B3DDC39D0002B40DC26
:1043E0003BD0002B44DC3ED0002671008919C90067
:1043F0002F4C6118CC8A002199423BDD710089194C
:10440000C90014310C002A4909190A240027088818
:104410009F4236DD013C0239002CF8D1FA23DB0043
:104420009C464D466544AD194346DD81631C4146BB
:104430008B81013273009B199B001C1964001C4B7B
:10444000E35AD21A4A8103B00CBC90469946F0BD9B
:1044500018498A42C2D90326C7E7174900988842FB
:10446000BFD90226C1E76E21FF3100988842BBD92F
:104470000126BAE7994202D100998C42BED80B249A
:10448000CCE79F42CAD1009DA842C3D8C6E7C04628
:104490008541010040420F000087930300A493D69A
:1044A0000060D71D00E0264ECE720000B50500006A
:1044B0005CE4010047040000DA020000F8B50600E1
:1044C0000F0015001A4CFA2292000023A0472A8000
:1044D000FA229200002330003900A047FA2292000D
:1044E0000023A0476A80134A002330003900A04708
:1044F0003C220023A047AA800F4A00233000390045
:10450000A0473C220023A047EA800C4A0023300049
:104510003900A04718220023A0472A81084A142303
:1045200030003900A04768810023AB81EB81F8BDE2
:104530008541010040420F000087930300A493D6F9
:104540000060D71DF0B5DE4657464E464546E0B5FD
:104550008DB005000C00160029600800844B9847B8
:10456000020023680520DB0706D50DB03CBC904651
:104570009946A246AB46F0BD236817309B07F4D49A
:104580007C49086A971C0123BB4003430B620BA9BB
:10459000737F0B700D32D7B23800774B98473800D5
:1045A000764B9847707F0021754B9847F37A6B7173
:1045B000337DAB71737DEB712B68984618006C4BA3
:1045C00098470D3000220E2302A98C4663441A80BE
:1045D00033680393F3689A46B37D99467368002B5A
:1045E00014D080225205934230D1F37D002B31D17B
:1045F00033699B46C0B2634B984701000E2202AB61
:104600009C4662445846604B984720E0F37D002B5F
:104610000BD01023009300230E2202A98C46624483
:10462000B1693069594FB84711E033699B46C0B250
:10463000544B984701001023009300230E2202A838
:10464000844662445846514FB84700E00020002895
:1046500000D08AE72A68138A1BB2002BFBDB0E23EB
:1046600002AA944663441B88424653815346039FE3
:104670001F4373681F434B465B071F43F37D002BAB
:1046800001D104331F43317D4904737D1B04194359
:10469000B37AF27A134319433389FF2B03D0802274
:1046A000520417431943337F002B03D1384B9B78B7
:1046B0009B0701D580231F432A68138A1BB2002B56
:1046C000FBDB434659602A68138A1BB2002BFBDBD5
:1046D00043461F600AAB80221A7000225A70DA70BB
:1046E0009A70336A0693736A0793B36A0893F36AFE
:1046F00003930993002706AE06E02000254B984758
:1047000007E00137042F0DD0F9B2BB0098590028FB
:10471000F3D0431CF5D00AA90870000CC0B21E4BA0
:104720009847EEE7290044312800343080221B4BA3
:1047300098470023AB60EB602B61AB61EB6100221B
:104740002B846B616B842433EA540133EA540133C4
:10475000EA540133EA542868054B9847040010498D
:10476000104B9847A400104BE5500020FDE6C046D2
:10477000F1DB00000004004099E200000DE20000BF
:104780002DDA0000E5E2000033D800005DD800001B
:104790000020004179DA0000C1E30000E599000043
:1047A000554900002DDC00003416002010B50468C7
:1047B0004284416105222723C254826A531C09D0D6
:1047C0005309DB0105498C4663441F211140012236
:1047D0008A409A610123637310BDC04600440041C2
:1047E000F0B5C64600B582B006000F001500019373
:1047F000194B9847738FFF241C40A5421DD9DBB28B
:104800009846002B12D12C1BA4B234844346FB18CB
:10481000B361F76105222623F2546B469B88B3856A
:104820000E4B984702B004BC9046F0BD30003430C7
:10483000220039000A4B9847E5E7300034302A005F
:104840003900074B98472423F35C9B07E8D5F368AE
:1048500030009847E4E7C046B5CE0000F5CE000032
:10486000199A00000163704710B5931C9B00195002
:10487000242401219140035D0B430355012A00D0FC
:1048800010BD036803325A73FAE7000010B517230E
:10489000002A01D1180010BD448CA4B2123B002C98
:1048A000F8D1C4791733002CF4D0024B9847002379
:1048B000F0E7C046AD47000070B51724002A01D1CB
:1048C000200070BD85790534002DF9D0058CADB27E
:1048D000173C002DF4D1024CA0470024F0E7C0465D
:1048E000E147000010B50400002902D0012909D0D9
:1048F00010BD0023038434300D4B9847262300223B
:10490000E254F5E7022302689373826A531C09D0CC
:104910005309DB0107498C4663441F2111400122E2
:104920008A405A610023638427330022E254DFE780
:10493000099A000000440041002903D0012905D054
:10494000172002E02623C05CC0B270472723C05C5A
:10495000C0B2FAE7F0B5C64600B580005E4BC55858
:104960002C68238A1BB2002BFBDBA37B667B1E40DB
:104970002423EB5C2522AF5C1F40F30715D56B8C1D
:104980009BB2002B0FD06B691A7801336B612283C5
:104990006B8C013B9BB26B84002B06D101332373DC
:1049A0000133637301E001232373B30713D502239B
:1049B000237300222533EA54AA6A531C09D05309F1
:1049C000DB0146498C4663441F21114001228A4085
:1049D0005A61FB0720D473071BD52B6B002B07D024
:1049E000AA8D002A04D01A70AB8D1B0A2A6B537053
:1049F000238ADBB25A072BD09A0711D51A22262315
:104A0000EA54238A183A134323827B071CD40023D9
:104A1000AB8504BC9046F0BD2800AB689847DAE748
:104A20005A0707D51E222623EA54238A1A3A13432B
:104A30002382EAE7DB07E8D513222623EA54238AF8
:104A4000123A13432382E0E728002B699847DEE7F8
:104A5000218B2C003434C9B22000214B9847002808
:104A600030D02B8C9BB2002BD3D06E8F2B8C9BB273
:104A7000F2B29A4201D92E8CB6B2F3B29846012B0B
:104A80001BD0FF223240A9692000164B9847AB6922
:104A90004344AB612A8CFF233340D31A9BB22B844F
:104AA0002B8C9BB2002BB4D12622AB54AB85BB0719
:104AB000AFD5EB6828009847ABE7A96920000A4BFF
:104AC0009847E4E711222623EA547B07A1D52B69F6
:104AD000280098479DE7C046341600200044004156
:104AE000B99A0000199A0000199B000010B5C46C17
:104AF0001823002C1BD0144B9847A26A531C09D0D2
:104B00005309DB0111498C4663441F2111400122E6
:104B10008A405A61012120000D4B9847002808D196
:104B2000002120000A4B98470023002806D11800D6
:104B300010BD01212000074B9847F1E7002120001C
:104B4000044B98470023F2E76D65000000440041E4
:104B500039490000E5480000F0B58FB00600C76C89
:104B6000002F00D1F5E0C423FB5C002B00D088E0CF
:104B7000B2788023DB05029300230393012102A86E
:104B8000017541758375C3750893882149030591A3
:104B900003770A930B930C930D93063343775300DB
:104BA0009B18D9006C4B5B1858331B781B071B0FE5
:104BB000072B00D905239B0068495B580193069396
:104BC00065485400A318DB00C31858331978490608
:104BD000890F8900624D495902AD29811B78DB0993
:104BE0009B0060495B58AB72A418E4000019583070
:104BF0000378DB06DB0F9B005B495B58EB721820E8
:104C0000002A00D0A6E080235B030593574B0A934C
:104C1000574B0B9301235B420C930D93C533FB5C05
:104C2000002B31D101973C682000524B98471F233D
:104C300018401E3B834080224F498B503A68138AAC
:104C40001BB2002BFBDB23680222934323603A68EC
:104C5000138A1BB2002BFBDB01232360396801227E
:104C60000B681A42FCD16424444D02AA44490198BD
:104C7000A847002820D0013CA4B2002CF5D1212067
:104C800068E0404B984773E73C682000394B9847F1
:104C90001F2318401E3B8340802237498B503A68BF
:104CA000138A1BB2002BFBDB236802229343236091
:104CB0000022C423FA54B5E72120002C4AD03C68D6
:104CC00020002C4B98471F2318401E3B83402A4A44
:104CD00013603A68138A1BB2002BFBDB23680222A5
:104CE0001343236031000E313800274B98470022D0
:104CF00026493800264CA047012226493800A04703
:104D0000022225493800A0472522BB5C07210B431E
:104D1000BB545A23104AD45C6C33FC52002C0FD085
:104D20006E3BD35C1B079B0E1C4A9858FA218900E6
:104D30001B4B98474443A4B2032C06D9C623FC520C
:104D40000122C423FA54002004E00422C623FA52AC
:104D5000F6E721200FB0F0BD00120020BCE40100F6
:104D6000E4E40100F4E40100DCE4010003001600C7
:104D70000300170069DC000000E100E04545000089
:104D8000001C0042ED4A0000654800003D4F000055
:104D900069480000194F0000614F0000FCE4010069
:104DA000A93D0100C36C002B04D09869DB69C01ACF
:104DB00080B270471820FBE7F8B50C0015001F0003
:104DC000C66C002E1ED0002B10D0DB17F9185940EE
:104DD00089B205220C4B9847031E11D1002F06DA29
:104DE000784280B2094B9847030000E000232A0074
:104DF00021003000064CA0471023002800D00F33BC
:104E00001800F8BD1823FBE725650000B165000018
:104E1000B948000070B50C001500C66C002B08D016
:104E20000021C822B150C33A1900064B9847002808
:104E300007D12A0021003000034B9847431E9841B8
:104E4000400170BD256500008D48000070B5C46C40
:104E5000002C11D0C625655B002D02D1074CA04760
:104E600070BDC826A151CC216252CE22A352C93AAC
:104E70002900034B9847F3E71820F1E7154E00008F
:104E80002565000010B5C26CC823D1587A3B0029B3
:104E900006D08033D35ACC24125B024CA0470300C7
:104EA000180010BD154E000070B50500D020094B4C
:104EB000984704003320012C00D870BDD022002177
:104EC0002000054B984701235B42A362EC6400205D
:104ED000F3E7C046D9EA00009977010030B50C4BE2
:104EE0001978002912DD0B4B1A68D36C98420BD04D
:104EF0000023084C0133994205DD9A00A258D56C75
:104F0000A842F7D100E00022100030BD0022FBE7EC
:104F1000600B00201010002010B5074B98470028A8
:104F200006D0037A052B04D0038B8022134303831E
:104F300010BD0023C381F7E7DD4E000010B5074B1D
:104F40009847002806D0037A052B04D0038B402213
:104F50001343038310BD0023C381F7E7DD4E000038
:104F600070B50500134B9847041E1CD02623EB5C3C
:104F7000DBB2132B18D007D954261A2B07D00F3EBB
:104F80001E2B04D0462602E04526112BFAD1237AA7
:104F9000052B0BD000212800074B98476681238BF7
:104FA00002221343238370BD5326F0E70023E381DD
:104FB000F0E7C046DD4E0000E5480000F0B583B0E4
:104FC0000C0016001D001C23F82902D9180003B09C
:104FD000F0BD01A908704A78633313400722934358
:104FE00040221343472213404B70453A28000A4F92
:104FF000B847A81C22003100B847A61C3100280081
:10500000064B9847AD192870000A68700434089B55
:105010001C800023DAE7C0461577010029980000BC
:10502000F0B5DE4657464E464546E0B585B00E0023
:1050300002920378994624234A46012A07D9180088
:1050400005B03CBC90469946A246AB46F0BD4B46E7
:105050006A4693809288002A00D1C0E00021624B0A
:1050600019704178614B19708378614C2370C57851
:10507000604C2570471D0079451DF82D00D993E03F
:10508000013A92B2934600244A460392B2463E0049
:10509000070023E001931A01D21A92005648844671
:1050A0006244127A8A421FD015234F4AA354F21940
:1050B000A3457FD0013400214B4BE15411784B4B79
:1050C000E15453784A48235496784A482654161D8A
:1050D000D7783A1DAD18ADB2F82D67D8012BD9D9C4
:1050E0001523414AA354E2E71A01D31A9B00C318BF
:1050F0005A7B9146DB7C4B44BB4203D019223A4B8E
:10510000E254D4E7002A0FD1019A13019B1A9B00A5
:10511000394AD318DF7C3200002F11D1324BE35CC7
:10512000002BC5D01600C2E7019A13019B1A9B0001
:10513000C318186B4A463100304B98474E44E3E79A
:10514000019B1A01D31A9A002B4B9B18986B3A00BB
:1051500031002A4B9847F219E0E7254B1B780024D1
:10516000012B13D92379A27A9B18DBB25D1DF82D90
:105170001ED8771D33712679002E0ED1A27A002A0F
:1051800029D0E16A38001D4B984724E01C01E41A3D
:10519000A4000834184BE418E4E73200616A3800D0
:1051A000164B9847BF19E9E71C2348E71C2346E73D
:1051B0001C2344E7039B564633700C4B1B787370DB
:1051C0000C4B1B78B370084B1B78F370002BC4D0CA
:1051D000002333710125029B1D8000232FE700234C
:1051E0000B700125F7E7C046540B0020500B002040
:1051F000580B00205C0B0020C41000201577010024
:10520000F0B5DE4657464E464546E0B58DB00790B0
:105210008A460C8803212000654B984789B20523F4
:105220000693002907D006980DB03CBC90469946DD
:10523000A246AB46F0BD220007995E485E4B9847F8
:105240005346188803215D4B9847C3B2002B3DDDC0
:10525000584A5078000211780843927894460F22F9
:1052600008A988464244614611706246F82A00D96E
:105270009BE05900CB184F495B180393002306931A
:10528000994688464E4B1C68002C00D17BE04D4B64
:105290001D8885427AD80890861804955A88531933
:1052A0009E421ADD069B002BBDD1474B00210131E8
:1052B00089B20591A14229D21D88854269D80495F9
:1052C0005A885719B7420BDA1033F0E700230693D8
:1052D000994653464A461A80A5E700230593394B61
:1052E000197B490707D5A84256D1614602ADE9832B
:1052F000E98B914253D15968002934D0089B049A14
:105300009B1AC918624607982B4B9847059B9C42ED
:1053100048D00F2308AA944663441B784A46D21803
:1053200092B29146079A94469C446346079303239E
:105330009C46E044039B9845CBD0434658780002F6
:105340001B78184343469B789C460F2308AA934634
:105350005B4462461A7062464B466344F82B93D90D
:105360001C2306935FE79D68002D09D0079A0092E1
:105370000F2208A98C4662440021A8470690C5E781
:1053800018230693C2E7182306934CE727230693B6
:1053900049E72723069346E71F23069343E71F2386
:1053A000069340E7182306933DE71C2306933AE74C
:1053B000B53E0100D00E002015770100A93D010087
:1053C0002CE6010030E6010040E60100F0B5DE46C3
:1053D00057464E464546E0B589B0824604910B8853
:1053E0009946032B46D90300407800021C782043DD
:1053F0009B789B460F2304AA944663445A461A702E
:105400005B460333994533DB5F4B1F685F4B043BBF
:1054100003935B4676E0002302935D4C8FE0606867
:1054200062885C4B984749E0A568002D46D05346FA
:105430000333009323000F2204A98C466244012108
:10544000A84739E0192004E0182002E0272000E0F6
:10545000272009B03CBC90469946A246AB46F0BD19
:105460002D20F6E72020F4E72020F2E71820F0E7CF
:105470001920EEE70023049A13800020E9E72A00B0
:105480004248444EB047414B434418005346D91C50
:105490005A46B047291D89B203983F4B98473B496C
:1054A00004200425237BDB06B9D5628812186068C6
:1054B000401B3A493A4B98470028CAD1029B9F4269
:1054C000D4D00F2304AA944663441B784A46D21AC8
:1054D000033A92B2914603339A44032ACAD95346F7
:1054E000587800021B78184353469B789B460F233D
:1054F00004AA944663445A461A705B465A460332DD
:1055000091459FDB002F9FD0214A128882429DD86F
:10551000C6181F4B5D8853199E4200DC7BE70023B1
:105520001B4C103401339BB20293BB42C6D222887B
:10553000824200D98CE765885119B142F1DB237BA7
:10554000D9078DD4190707D590428BD159466E469D
:10555000F182F18AA94287D16168002900D163E70D
:10556000801A82B290469B0689D40C4E2A003000E5
:10557000084DA847434698195346D91C5A46A84790
:105580003100002000258DE72CE60100D40E00201C
:1055900030E6010015770100FD7C0000D00E0020F0
:1055A000BDC20000F0B585B00D000B880522022BAE
:1055B00002D8100005B0F0BD4778017886780F2337
:1055C0006B441E70B31CF82BF3D81B4B1B689C4616
:1055D000002B2BD03F020F43184B1A88974227D33A
:1055E000BE195B889B189E421CDD0022134B1033B2
:1055F000013292B2624517D21C88A7421AD3598849
:105600000919B142F3DB9C681822002CD1D00F2677
:105610006E440090320000213800A0470200337829
:105620002B80C6E7054BEEE71822C2E71822C0E739
:105630002722BEE72722BCE72CE6010030E6010066
:10564000F0B5DE4657464E464546E0B587B0040005
:105650000D00C66E0B88D91E89B204AAD180053B05
:105660009BB20620F82B06D907B03CBC9046994661
:10567000A246AB46F0BD08239846B0444046D04B06
:105680009847030004AA0632128841468F5CC1B2D3
:1056900006208F42E8D11B0A41468918DBB24978BF
:1056A0008B42E1D10A239B46B344023A97B204AB42
:1056B000DF80337ADAB2902A6BD019D9DAB2932A22
:1056C00000D130E136D9DAB2A42A00D1B4E1A72A58
:1056D00000D19DE1DBB2982B00D0E9E104AB9F1D26
:1056E0003A0059465846B74B984701903F8811E019
:1056F000142B00D1FEE0142A11D8102B50D0112BFE
:1057000000D0D5E104AB9F1D39005846AE4B9847F9
:1057100001903F88019B002B00D1B5E1A8E1202B2F
:1057200000D191E1212B00D0C2E11920A74B98476D
:105730000027A9E1912A00D1D3E0DBB2922B00D05F
:10574000B6E1F37A1B02B77A1F43327B93B29A46D3
:10575000E06D002800D1D6E09D4B9F4200D1DBE0F8
:10576000BB18802149008C46E4390191634500DD76
:105770007EE1C01931000D31964B984780235B00C4
:1057800052469B1ADB1B9BB2B3721B0AF3720227B1
:105790007AE1002F00D177E15A46A146AA467CE083
:1057A000052138008C4B984789B2052301930029C5
:1057B00000D05DE13A0059468848864B984705215C
:1057C0003800874B9847C0B2002800DC88E1834B43
:1057D000D97809069A78120411431A7811435A7835
:1057E000120211431B799A46F82B00D97AE105235E
:1057F00058437A4BC21803925A46019299460027A1
:105800002B0035004E46A14654469A461FE0029AA8
:105810000198704B9C46E0473F19BFB2019B1A00AC
:10582000029B9C46624401920536039B9E4221D016
:10583000F1780906B3781B04194333781943737858
:105840001B02194334793B19F82B00D9FFE002946D
:1058500063188022D2029342D9D9624A914200D879
:1058600029E1614A9342D2D92E004C46554627235E
:105870000193FDE02E004C46554605E1531D9B4625
:1058800022001900534B984704ABDF887F1BBFB23F
:10589000DF8022005A44002F20D01479A5B2053FA2
:1058A000BFB204ABDF80BD4200D9D4E0D07800069F
:1058B00093781B0418431378184353781B0218433A
:1058C000484B984200D8FCE0031947498B42D5D990
:1058D00093464C46554627230193C9E04C4655460E
:1058E000D2E004AB9F1D39005846404B98470190C9
:1058F0003F880FE704AB9F1D390058463C4B984743
:1059000001903F8806E7324B9F4200D028E70130E4
:10591000FF30384B9847E06580225200FF21E06D50
:10592000354B98472AE7E06D002800D1CFE00523EA
:105930000193082F00D09BE0737B1B06327B12047F
:105940001343B27A1343F27A120213431F00F27B1D
:105950001202B37B9B189BB29A46727C1202337C74
:105960009B189BB299465146154B984726230193A5
:10597000814500D07CE0DA339A4500D9AAE01F4A7D
:10598000803BD35884215258591C01D11C4B002212
:10599000BB4209D89B18052201929F420AD3534665
:1059A000FB18184A934205D85246E16D3800164B51
:1059B00098470190E06D154B98470027E765A9E6E9
:1059C0002998000021500000015200007198000049
:1059D000FFFF000015770100B53E0100D00E00204A
:1059E000A93D0100FFFFFF1F00800020CD530000F4
:1059F000A5550000D9EA00009977010060FF030077
:105A00007CFE010000F70300BDC20000FDEA0000BB
:105A100037000D3703239F43A02233493800334B0F
:105A2000984721003800324B984701213800314B0C
:105A300098470222304B9A7004ABDF88002F4CD17C
:105A400002222D4B9A701FE00027019762E62E007C
:105A50004C46554618E093465246A2464C46A94647
:105A600015004A46BB1A04AAD380D34405230193E8
:105A70005B460199197008125B465870727A802350
:105A80005B42134373720227737A4022934373720B
:105A9000BE1CB6B231004046184B98470836E36E3C
:105AA0009E193070000A707004372F800020DBE5EB
:105AB00006230193DCE72E004C465546272301932D
:105AC000D6E793464C46554627230193D0E7082353
:105AD0000193CDE705230193CAE705230193C7E7A7
:105AE0000027D1E70027CFE760FF0300157701000B
:105AF00025AB000081A900004C100020299800006F
:105B00000A22835E0B800023438100228B5E002BE0
:105B100000D101330B800B20704700230B800B203A
:105B20007047002343710B800020704730B583B06D
:105B300004000D006B46D91D1C4B98472880002897
:105B40001BD16B4607331B78012B10D0022B1DD1C4
:105B50000023E38200212000154B98472000A36B0F
:105B6000984728800023E95E00290FD007E0E378FA
:105B7000083B012B0DD917232B800023E95E8B04F2
:105B80009B0C102B02D02000094B98470B2003B030
:105B900030BD2000E36A98475423E25A2233E15C87
:105BA0002000044B98472880DCE7C046596A000073
:105BB0009969000029770000F8B504000D00002362
:105BC0000B80806C5433C35A002B03D06822A25A36
:105BD0009A4201D2836B9847A06C394B98470028B2
:105BE0003DD0A36C1B7C9B0621D5237C0422134350
:105BF00023742000334B984728805223A26CD25A3A
:105C0000E252E76E5423E65AE3781A00083A012A72
:105C100040D8A26C127C920602D5FA791C2A2AD0AE
:105C2000082B49D0092B35D10636B6B232E0200018
:105C3000254B98472880237C202293432374A06C13
:105C4000224B98472000224B9847002804D08442DA
:105C5000D7D008232B8028E008232B8025E02000C4
:105C6000194B98472880A06C836B9847237C20228F
:105C700093432374C5E73A7A11006631C9B201290A
:105C8000CED80A37063EB6B29A2A10D0637C0822D4
:105C9000134363742000E36A98475023E35A3200A9
:105CA000390020000B4CA04728800B20F8BD637CF6
:105CB000042213436374E9E706370236B6B2E9E714
:105CC000E57A0000796C0000096C0000457800005E
:105CD000CD670000BD7A0000F8B5CE46474680B5D6
:105CE00004000D001600C36E99466827C35B9846F2
:105CF00088220021244B98474B46E3664346E353F2
:105D00006570A670EB0033432370002D34D11F4B18
:105D10001B78DA0703D4012213431C4A13703100A5
:105D200020001B4B98471B4B23631B4B63631B4B90
:105D300063621B4BA362E362A27853009A18D200FD
:105D4000184B9B18583359780909174B174A5A6052
:105D5000174A9A62174A5A62174A1A60174A1A6211
:105D600000225A61DA619A61E170002807D0A082AE
:105D70000CBC90469946F8BD00200F21E5E70132A2
:105D800020000F4B9847F2E799770100610B002044
:105D9000A94E0000B94D00004D4E0000594B0000C7
:105DA000ED4A000000120020C80F0020015B000037
:105DB0001B5B00002D5B0000235B0000B95B000053
:105DC000CD61000010B54378002B15D182785300C7
:105DD0009A18D2000B4B9B1858331B781B071B0FCC
:105DE0000120072B0CD89B00074A9858FA218900FC
:105DF000064B984780B200E00120002800D1013016
:105E000010BDC04600120020FCE40100A93D0100C5
:105E100010B54378012B38D0002B07D06420022B1B
:105E200003D00120002800D1013010BD827853003A
:105E30009A18D2001B4B9B1858331B781B071B0F5B
:105E4000C278082A03D0092A10D00120EAE70120ED
:105E5000072BEAD89B00144A98580002FA218900BF
:105E6000124B9847F530FF3080B2DBE70120072B5B
:105E7000DBD89B000C4A98580002FA2189000B4B92
:105E80009847F530FF3080B2CCE7837806331A01AB
:105E9000044B9B18F8331B785B0701D00448C4E718
:105EA0000448C2E700120020FCE40100A93D010003
:105EB000DC0500008813000010B51C2200211048EA
:105EC000104CA0471C2200210F48A0471122FF219F
:105ED0000E48A04700220E4B1A7003320021012009
:105EE0000C4B98470C4B18603323002805D0002337
:105EF00000220021094CA0470023180010BDC04615
:105F00002C10002099770100F40F002014100020BD
:105F10004810002031ED00002810002081ED000025
:105F200010280BD8094B1B5CFF2B0BD000230B80D8
:105F3000064B1B5C9B00064A985870474A230B800F
:105F40000020FAE7B53B0B800020F6E71410002094
:105F50001010002010B50200054B18680023002126
:105F6000044CA047012801D00A2010BD0020FCE706
:105F700028100020E5EE0000044B1B78002B03DD09
:105F8000034B1B6809229A8200207047600B002097
:105F90001010002010B50C4B1B78002B06DD0B4BAE
:105FA0001B689B69002B03D1002010BD0020FCE77B
:105FB000074B1868002300220021064CA0474342EB
:105FC00058410130F1E7C046600B0020101000205E
:105FD0002810002081ED0000F0B583B001900F0083
:105FE0001500154B1B781824002B02D0200003B09D
:105FF000F0BD10008830114B984706001B34012873
:10600000F4D903008833C3666823C5523A00019966
:106010000B4B9847041E0AD1074A13783178094878
:106020004354591C11709B00074A9E50DEE7300014
:10603000064B9847DAE7C046600B0020D9EA00001B
:10604000D95C00001410002010100020FDEA0000B0
:10605000F0B5DE4657464E464546E0B583B0224B86
:106060001B6800229A64214B9846182343449B46A0
:1060700000239A46012620E0B86401344B461B19E0
:10608000D87B6B46991D1A4B984700280CD0876423
:1060900032002A405200837902218B4313438371DB
:1060A000012CE9D0062CE8DD0C239C46E044534645
:1060B000013333409A46D8450ED0C1464346D87D79
:1060C0006B46991D0A4B9847070001240028EBD026
:1060D00053465D423540D1E7002003B03CBC9046BA
:1060E0009946A246AB46F0BD1010002000120020D9
:1060F000215F000010B50400054B9847238B628B8D
:106100001343238300236383024B984710BDC0468B
:10611000B5CE0000F5CE0000028BD30709D40120D4
:10612000012113000341194204D101300B28F8D199
:1061300070470020C0B2FBE770B505000C00044BAF
:1061400098472B8B1C432C83024B984770BDC0464D
:10615000B5CE0000F5CE000010B5164A1388013305
:106160009BB21380144A1278002A19DD134A14686E
:106170009022FF32934207D9A389002B01D0013B23
:10618000A38100220B4B1A800D4B9847E389002B0B
:1061900004D0013B9BB2E381002B02D0094B98470E
:1061A00010BD237A0121994089B22000064B9847FF
:1061B000F4E7C0465E0B0020600B002010100020AA
:1061C000B5CE0000F5CE00003961000010B5002307
:1061D0000383C378C371C170047C80235B42234373
:1061E00003740D39012901D8182010BD072303714C
:1061F000084B4364084B8363084BC363002A03D1F5
:10620000054B98470020F0E70121054B98470020F7
:10621000EBE7C04610E60100C5770000DD6D000029
:1062200039610000F0B5D6464F464646C0B584B049
:106230000E00140001930CAB0027DF570DAB0025B7
:106240005D57002202ABDA804A23032806D91800E2
:1062500004B01CBC90469946A246F0BD534B1A5C54
:106260004A23FF2AF3D0CBB29A46631CDBB2012249
:10627000022B06D853460133DBB207329A429241D1
:1062800052426B461B7999460133DBB2032B00D98E
:106290000122791CC9B203230229D8D86B1C00DA69
:1062A00081E0032D01DD082D7DD10323002ACED10D
:1062B000631C03D0072C6FD0082C6AD07B1C03D042
:1062C000012F6ED0022F69D002AB991D384B984731
:1062D0008278731C12D053009B18DB003549CB1811
:1062E00058330F2651460E40B04619788A460F2182
:1062F00056468E433100464631431970631C0DD01B
:1063000053009B18DB002B49CB1858330121214047
:1063100009011C781026B4430C431C70019B013307
:106320000ED053009B18D900224B5B185833032121
:106330004C4621404C0119786026B1432143197025
:106340007B1C0BD053009B18D9001A4B5B18583399
:10635000FF011C787F2121400F431F706B1C0BD065
:1063600051008918CB001349C91858312B014D78B9
:106370000F242C4023434B7053009A18D2000D4B2E
:106380009B1858335978090901220B4B9847030091
:106390005DE7073C64B291E70024FBE7013F7FB271
:1063A00092E70027FBE7032351E7C04614100020C3
:1063B000215F000000120020CD610000F0B5C6464C
:1063C00000B5FEB00022FB235B006B441A8003285B
:1063D00004D94A230200083A072A04D83B4B1A5C26
:1063E0004A23FF2A04D118007EB004BC9046F0BDB9
:1063F000FB2149006944364B98470400857843786F
:10640000002B0CD0012B38D00522FB235B006B4402
:106410001A80FB235B006B4400229B5EE3E7F822BB
:1064200001A9FF2080022B4B9847FB235B006B44A4
:1064300018800028EDD1A07841000A18D200583207
:10644000254B984642446B005B19DB007EADAC46A1
:1064500063449D3BFF3BE0CBE0C20918C9004144C7
:106460000E00583671780909012220001B4B98470D
:10647000FB235B006B441880CBE7F8223FA9184848
:10648000144B9847FB235B006B4418800028C0D155
:1064900006352D012900F8310F4A8918A3781B0110
:1064A0007EA8844663449C3BC1CBC1C11B680B6082
:1064B0005519F8352978090901222000074B98471A
:1064C000FB235B006B441880A3E7C0461410002038
:1064D000215F00003D7D000000120020CD61000022
:1064E00000FD030070B504000D00044B9847238B9A
:1064F000AB432383024B984770BDC046B5CE000026
:10650000F5CE000070B505000C00044B98476B8B6E
:106510001C436C83024B984770BDC046B5CE00004B
:10652000F5CE000070B504001600C3891020002BC2
:1065300000D070BD8130FF304843FA218900084BFC
:106540009847013085B2074B984726722B1C012DC6
:1065500000D80223E381044B98470020E9E7C046B6
:10656000A93D0100B5CE0000F5CE000010B5040035
:10657000034B98470023E381024B984710BDC04668
:10658000B5CE0000F5CE000010B50400037C5B071B
:1065900001D50B23C382002323822000034B98479D
:1065A0005023E0520B222233E25210BD115E000054
:1065B00010B5C8235B005843FA218900044B984763
:1065C000013080B2031C012800D8022398B210BD0C
:1065D000A93D0100094B1B78002B0CDD084A1178FE
:1065E0001A00814205D0013B934201DD044AD05498
:1065F00070470022F7E70022F5E7C046600B002055
:1066000048100020F0B5CE46474680B583B05C4BBD
:106610001B78002B00DC9CE05A4B1B789B005A4AED
:106620009D582800594B984700226B46DA80280075
:10663000574B984704000B2800D18AE0554E564B23
:106640009846534F0FE008226B46DA806B460633BC
:1066500000229B5E9B049B0C102B31D12800B84775
:1066600004000B282CD00121A14089B22800B0479A
:106670006A792B799A42E6D200226B46DA80A3002F
:1066800042469B58002B0BD006226A4491461100CB
:106690002800984704004B4600229B5E002BD5D172
:1066A0000B2CDBD06B799B006A6C9B58002BD5D0F0
:1066B000210028009847031E6A46D080CED0C9E743
:1066C0002B78364AD05C364B98476B46063300220F
:1066D0009B5E002B3DD09A04920C102A39D0AB82DD
:1066E000EB82162A02D0296A01312962A86C00289F
:1066F0000ED0017C89060BD5297C090708D483823A
:10670000C382162A02D0036A01330362836B98475F
:1067100000226B46DA801423E95E2800214B98475B
:10672000AB8A9B049B0C272B19DD2800AB6B984789
:10673000040028001C4B9847AA8A7223EA526B4631
:10674000063300229B5E002B10D16B46DC80002CB0
:106750000BD1002003B00CBC90469946F0BD280038
:10676000AB6A98476B46D880DFE723009A04920C07
:10677000102AEED06B81022128000C4B9847E8E7E5
:10678000600B00204810002010100020F560000071
:1067900019610000E5640000C80F002014100020FB
:1067A000D565000099690000896500000565000055
:1067B00083799B0702D4034B18687047024B186813
:1067C000FBE7C0462C100020F40F002010B58379A1
:1067D0009B070DD5084A1068002806D01300110049
:1067E00018315C6810C38B42FBD10023936110BD4C
:1067F000024A1068F0E7C046F40F00202C10002079
:1068000010B583799B070DD410490B6898421AD0B4
:106810000A1D01231468A04206D001330432072B5D
:10682000F8D10FE00A49F0E7072B0BD0052B07DC66
:106830009B00CB180A001832586801C39342FBD161
:1068400000238B6110BD0023F2E7C0462C1000200E
:10685000F40F002070B5010083799B0718D4104C09
:106860002068814213D0221D25001C3513001E68AC
:10687000B14212D00433AB42F9D100280AD014003F
:106880001068002806D004329342F8D1002070BD71
:10689000044CE5E721600800F9E70800F7E7C04687
:1068A0002C100020F40F0020054B1B68002B04D097
:1068B000587CC006C00F00B270470020FBE7C046FE
:1068C0001010002070B582B00C0015004A88052316
:1068D000FF2A02D9180002B070BD6B46991D1B4BF0
:1068E0009847061E26D0037C5B0628D47423C25C1E
:1068F000523B002AEED1743014322100144B9847D9
:106900008F227223F252134B1B8801339BB2002B50
:1069100018D0104A13800F4B1B887022B3522B8063
:106920008021890030000C4B98476B4606330022CB
:106930009B5ECFE76B46063300229B5ECAE71422BC
:10694000835EC7E70122034B1A80E4E7215F000062
:1069500015770100620B00203961000010B582B08C
:1069600004000B4B98476B46D880002805D06B4637
:1069700006330020185E02B010BD6B46991D200042
:10698000044B9847437C102213434374EFE7C046FF
:10699000C5680000215F00007223C152002202334B
:1069A000C254437C10218B4343747023C2527047FE
:1069B00000B583B06B46991D074B9847002809D056
:1069C0000B234381722283520221044B98471020EB
:1069D00003B000BD4A20FBE7215F000039610000E1
:1069E00010B5094B1B68002B0BD05A7C0020D20637
:1069F00000D410BD1878054B98470028F9D1102015
:106A0000F7E70020F5E7C04610100020B16900004C
:106A100030B583B00C0015006B46991D0D4B98479F
:106A200000280CD0037C5B060ED47023C25A603B56
:106A3000A2420BD06233C35E2B80002306E06B467C
:106A4000063300229B5E01E01422835E180003B02F
:106A500030BDC046215F000010B5040002230B705A
:106A6000037C9A0712D47422825C0820002A18D072
:106A70001B0717D5462A14D1238A0E2213432382DB
:106A800001230B70E36B200098470AE00378094A62
:106A9000D05C094B9847802189002000074B98471C
:106AA000102010BD238A0E200343238206205306A4
:106AB000F7D5E5E714100020D56500000565000056
:106AC00070B5064B9847064C064E074D00E0B047A0
:106AD0000648A0470028FAD1A847F9E7516000000E
:106AE000555F0000795F000005660000E02E0000A1
:106AF00030B585B0154B9847041E16D1144B5B6A10
:106B0000002B15D1002303930293019302330093CA
:106B10000023802292000F490F48104DA8470128FA
:106B200003D00F220E4B9A813424200005B030BDD3
:106B300062230C4AD25A002100200B4B98470028B0
:106B4000E0D00022024B5A62DCE7C046B95E00008A
:106B5000441100201CE50100C16A0000EDF00000B6
:106B60004C10002000120020D95F000070B5040016
:106B7000816C5423CA5AC252002A11D15425615B38
:106B8000E36E981D0A4B9847635BE26E944663443C
:106B9000020ADA71625BE36E9B189871002070BD87
:106BA000C36E981DC96E0631024B9847E6E7C04692
:106BB000719B00001577010010B504005423826C0E
:106BC000D25AC252037C5B070AD50023C26E1370EF
:106BD000C26E5370C26E9370C26ED370C26E137168
:106BE0005423E25A002A05D1E36E5422A25A5A7164
:106BF000002010BDE36E981DA36CD96E0631014BC9
:106C00009847F1E71577010070B5C478856CEB788B
:106C10009C4206D0082B1AD0092B1FD00123180044
:106C200070BD5423EB5A1A000021082C0CD05424B8
:106C300003530023002AF2D0C06E4018EB6E59189F
:106C40000A4B98470023EAE79A1C0631EFE7012335
:106C5000092CE4D1064B98470300E0E70123082CF8
:106C6000DDD1044B98470300D9E7C04615770100F2
:106C7000B96B00006D6B000070B5C478856CEB7863
:106C80009C4206D0082B1AD0092B24D001231800CF
:106C900070BD5423EB5A1A000021082C0CD0542448
:106CA00003530023002AF2D0C06E4018EB6E59182F
:106CB0000F4B98470023EAE79A1C0631EFE7032CB5
:106CC00003D9092C03D00123E1E70023DFE7094BB7
:106CD00098470300DBE7032C03D9082C03D00123DA
:106CE000D5E70023D3E7044B98470300CFE7C0461E
:106CF00015770100B96B00006D6B0000F8B5DE463A
:106D000057464E464546E0B5C26E13000B33977AA0
:106D1000002F52DD00252F4A9046914692460FE003
:106D200023011B1B9B002B4AD318D86A5A463100FB
:106D3000294B98475E4427E033000135BD423ADADB
:106D40001A7894465C789A781E1DD878012C36D82B
:106D500011B223011B1B9B004344D983D984002A11
:106D6000EAD123011B1B9B004B441B7A63452DD1A9
:106D700023011B1B9B0053441A7B93469B7C5B4463
:106D8000834225D1002ACBD123011B1B9B00114A32
:106D9000D3189B7C9B4633005A46002ACDD0230152
:106DA0001C1BA4000B4B1C19606B31000A4B98474D
:106DB00033005B44C1E7002002E0002000E0152022
:106DC0003CBC90469946A246AB46F8BD1520F7E775
:106DD0001920F5E7C410002015770100F0B587B041
:106DE00004007423C35C482B4BD011D8442B41D0F2
:106DF00006D8412B00D164E0432B3FD0062025E08C
:106E0000452B33D0472BF9D102227523C2545BE0C6
:106E1000C42B00D174E006D8C12B00D198E0C32B5D
:106E200000D171E0EAE7C52B00D165E0E02BE5D1A8
:106E30001C226B3BC254C36E08335E32815C02007D
:106E400054320092C26F98205A4DA847002821D191
:106E50007623E25A243BE2522333E35CE26ED371A1
:106E60005422A35A0233A352002013E08221425A33
:106E7000520042528221625A52006252032175220C
:106E8000A154482B08D08223E25A531E9BB27C2B7C
:106E900006D94D2007B0F0BD04222D33E254F2E7AD
:106EA0008021635A1B0AE06E0372635AE16E4B72D3
:106EB0000023E16E8B72E36EDA7204225423E252F5
:106EC000C6E701227523C2548223E25A531E3A496F
:106ED0009BB28B42DDD88021635A1B0AE06E03729D
:106EE000635AE16E4B72130AE16E8B72E36EDA72D3
:106EF00004225423E252ABE77A22835A5B00835286
:106F00007A22A35A5B00A35210227523E254053360
:106F1000E25A531E9BB27A2BBBD87821635A1B0AC4
:106F2000E06E0372635AE16E4B720023E16E8B7266
:106F3000D3B2E16ECB725B00E16E0B73E16E0B7B43
:106F40000533542023520D31E06F1C4B98477FE7E7
:106F50000F227523C2540533C55A6B1E184A9BB2C3
:106F6000934200D995E72BB20F2702AA94466744B3
:106F7000390003931800134B98475426A0537822E6
:106F8000A35A1B0AE16E0B72A35AE16E4B722B0AD5
:106F9000E16E8B72E16ECD72A35BE16E0B733B7899
:106FA000E16E0D31039AE06F074DA847A35B0533EF
:106FB000A3534DE7BD4F0000CF070000019D000027
:106FC000AF070000459C0000A99B000083B29A0413
:106FD0000020002A01D0643318B2704770B582B027
:106FE0000400C66EF3797F2B07D87523C25C1C2A78
:106FF00008D893002F4AD3589F46307A2E4B984793
:1070000002B070BD0620FBE75423C25A931F9BB207
:107010000620F62BF4D80836043A95B22900300041
:10702000264B98470300715DC2B206209142E7D11A
:107030001B0A7519DBB26A789342E1D1E36E1B7AC1
:107040000620982BDCD120001D4B9847D8E78223DF
:10705000C05E6B46D91D1B4B98470300E56E2A7A2C
:107060004D209A42CCD15422A25A03339A42C7D11E
:107070008223E25E8423E15828000930124B9847AE
:107080000020BDE78223C25A5100337A4D20994235
:10709000B6D15423E35A033B9BB25B089A42AFD16B
:1070A0008423E15830000930084B98470020A7E7B7
:1070B0000020A5E728E50100CD6F00002998000019
:1070C000FD6C0000459C0000EF9B0000019D00004E
:1070D00080B20300643B9BB20B2B0BD98004830C62
:1070E000062B0ED008D903204D2B04D001388D2B50
:1070F00001D004E018B270470020002BFBD0042020
:10710000F9E70120F7E70000F0B5D6464F464646BE
:10711000C0B586B00600C46E217A0902637A1943AD
:107120008946A37A1B02E57A1D432DB2AFB25422E1
:10713000835A013B9BB205A803800220B052002075
:107140004A3A02A98C4662441080E0791C2800D992
:1071500001E18200CA498A589746052B0CD04D227E
:107160000A2302A98C4663441A800A2302AA944681
:10717000634400255D5F5AE07B1EC24A9BB2934286
:1071800000D8F5E04D220A2302A98C4663441A80F8
:10719000EBE7052B0CD04D220A2302A98C46634451
:1071A0001A800A2302AA9446634400255D5F3EE0EC
:1071B0007B1E9BB27C2B00D800E14D220A2302A942
:1071C0008C4663441A80ECE73A0021000931AE4B4B
:1071D00098470DE1052B0CD04D220A2302A98C46BD
:1071E00063441A800A2302AA9446634400255D5F23
:1071F0001DE0002F00D110E1FF231B029F4200D1B0
:107200000BE14D220A2302A98C4663441A80E9E768
:10721000052B00D11AE14D220A2302A98C466344B2
:107220001A800A2302AA9446634400255D5FAB04DA
:107230009B0C3E2B0CD05422B35A0133B352E2794B
:1072400080235B421343E3712800904B98472072E0
:10725000280006B01CBC90469946A246F0BD227B91
:107260000E2002A98C4660440280901D83420AD001
:107270004D220A2363441A800A2302AA94466344D7
:1072800000255D5FD3E77B1E81489BB2834206D910
:107290004D220A2302A98C4663441A80ECE7781E2B
:1072A000C3179C46072361460B401B18DB100133B4
:1072B0009A4200D1F2E04D220A2302A98C4663448F
:1072C0001A80D9E7207B0E2202A98C4662441080E6
:1072D0004D250A22624415807A1E92B27A2AA0D8DD
:1072E0000200063083429CD17B009A4299D1433DF3
:1072F000654400232B800E2262441780009303957F
:107300002B0049460D20634DA847039B00229B5E3E
:10731000002B26D13A00010020000D305A4B98472F
:1073200004230AE005AD290030005B4B98470A238F
:1073300002AA9446634418802B880A2202A98C462C
:1073400062440025555F002D00D070E75422B15AE9
:107350005B18B3527CE706220A2302A98C466344D9
:107360001A800A2302AA9446634400255D5F5EE703
:107370000E2302AA944663441F800138431E98419D
:1073800005300A2565442300093300932B000E22A3
:10739000624449463F4FB8470022AB5E002B05D1FF
:1073A0000E2302AA944663441B8823720E2302AA6A
:1073B000944663441B8801339BB2BEE70E2302AAA6
:1073C000944663441F800338431E98412D300A259C
:1073D0006544AA46002300932B000E2262444946CE
:1073E0002C4DA847534600229B5E002B00D1EBE6B4
:1073F0000A2302AA944663441B889B049B0C3E2BE1
:1074000003D00E2363441B8823720E2302AA9446E2
:1074100063441B8801339BB28FE70E2202AB9C466C
:107420006244012313800A256544002300932B0046
:1074300049460520174FB8470022AB5E002B90D17C
:10744000A37A5A1E93410370042376E70E2202ABFF
:107450009C466244012313800A256544002300935F
:107460002B0049462D200B4FB8470022AB5E002B66
:1074700000D076E7E37A0370A37A437004235CE7D5
:107480009CE50100CF070000019D0000D1700000C5
:10749000AF070000BD840000415600000E2202AB81
:1074A0009C46624417800A23634498460023009355
:1074B000434649460520174FB84707004346002278
:1074C0009B5E002B00D0ACE6092102AB9C466144D8
:1074D0002800114B98470E2302AA94466344188053
:1074E000237BC0B2834203D04D220A2363441A8017
:1074F0000A2302AA9446634400229B5E002B00D01C
:107500002FE72A00390020000D30044B9847042350
:1075100013E7C046BD840000459C0000EF9B0000BF
:1075200070B5040005294AD0072900D16DE0462036
:10753000002843D1637C1B0739D5E26E537A402182
:107540008B435372637C5B0706D500225423E252BF
:10755000637C0432934363745425665B0236B6B28F
:10756000E06E08303100314B9847635B043363535E
:10757000E36E9B191872E36E9C466644000A7072B3
:10758000615B023189B26153E36E981D284B9847C5
:10759000635BE26E944663449871635BE26E94466B
:1075A0006344000AD871637C082293436374022306
:1075B0006371802120001F4B9847002070BD1E4B37
:1075C00098475423E052E378082B01D00820AFE716
:1075D000637C1B070ED4013880B25423E05201288B
:1075E0000BD85423E25A1433E35A4D209A42E5D87B
:1075F0000230E3E701305423E0525423E25A1433BB
:10760000E35A4D209A42D9D894E70C4B9847E37837
:107610000820092B00D08BE75422A35A053B9BB2CC
:10762000A3524F20012B00D984E7C7E72998000017
:10763000719B000005650000C97A00006D650000BF
:1076400070B5040005293DD0462007293ED1237C92
:107650005B0703D4237C0222134323740623637144
:10766000E378082B03D0092B17D017202EE0200039
:10767000284B98472000284B98478300C31A1BB219
:10768000E26E607C11000B31000704D5256BFF22F0
:107690002000A8471AE0D11DF8E76378002B08D036
:1076A00020001E4B98470200431C4D20052B0DD98E
:1076B00000E0062292B2E36E591C256B00232000E5
:1076C000A84703E0037C46205B0700D470BDA36C91
:1076D000002B1CD01B7C09309B06F7D5E26ED179BC
:1076E00080235B420B43D3710B23E26E13720322A0
:1076F0004933E252023264212000094B98470423A7
:10770000637140212000074B98471020DEE74F208F
:10771000DCE7C0466D650000C55D0000C97A000069
:10772000256500000565000070B504001500C36EF6
:107730009971C378082B03D0092B19D0462016E085
:10774000C36E9E1D11003000104B98470235AAB23F
:10775000E36E9B181871E36E9B18000A587154234E
:10776000E252043BE35A31002000094CA04770BDAF
:10777000C66E0023B370C26ED3702B0AC26E137133
:10778000C36E5D710635AAB2E9E7C046719B000081
:10779000BD7A000010B5C378082B04D00022092B55
:1077A00002D017200CE00622437C1B0700D50A22DA
:1077B000052343710BB2C16E8918046B0122A047E7
:1077C00010BD000010B50400034B984700212000B5
:1077D000024B984710BDC0461D7800009577000009
:1077E00010B50400044B9847002800D010BD2000BD
:1077F000024B9847FAE7C04601780000C5770000C1
:1078000010B5041E05D0044B9847636A20009847C2
:1078100010BD0120FCE7C0468965000010B50400DA
:10782000038A0E2293430382C36A98472000034BC6
:1078300098472000024B9847002010BD6D6500005E
:107840000168000010B5084B5B898381C36901336F
:10785000C3610023C382836B002B02D098470020B2
:1078600010BD1720FCE7C0460012002010B5062905
:1078700006D0072926D0052920D04623180010BDA0
:10788000027C24231340042B03D00F4B98470300A2
:10789000F4E7C278083A1333012AEFD8437C5B0738
:1078A00005D45023C15A094B98470300E6E7062345
:1078B00043712021064B98471023DFE7054B98477B
:1078C0000300DBE70023D9E7457800009577000047
:1078D00005650000854E000010B50400062905D09E
:1078E000072933D04620052935D010BD037C5B071E
:1078F00006D5A06C802149001B4B98471020F4E767
:10790000836C1B7C9B0704D54021184B98471020A3
:10791000EBE7174B9847844205D040212000134BDA
:1079200098471020E1E7A26C137C02210B431374EB
:10793000237C5B07DDD4A36C9C64E378083B012BBC
:10794000D7D8E36E9A795223E252D2E78021074BCF
:1079500098470020C9E7237C20229343237420000A
:10796000044B98475E20C0E73961000005650000C0
:10797000B16700000168000070B582B00400002209
:107980006B46DA80C378083B012B01D8C36EDA1D41
:10799000256C002D2DD007394B1E9941C9B26B467D
:1079A00006332000A84705008004800C3E2807D13C
:1079B000802120001B4B98471025280002B070BD85
:1079C0002000194B9847E378083B012BF5D8002D90
:1079D00018D15422A35A6946063109885B18A3526C
:1079E0005423E25A023BE15C2000104B984705000B
:1079F000E3E720000C4B9847E378083B4625012B32
:107A0000DBD84625E26ED17980235B420B43D371EC
:107A10005422A35A0133A352E66E2800044B984720
:107A20003072DDE7056500006D6500002977000014
:107A3000D170000000291AD0037C1B070AD57623D9
:107A4000C35A5222825A9A4227D0FF3B5A4253418C
:107A5000DBB206E0836C002B21D01B7C9B06DB0F86
:107A60005B005222825AFF2A20D01800704752230E
:107A7000C35A114A12899A4213D0FF2B15D0002BFA
:107A800005D1C378083B012B0DD80123EDE7826CAB
:107A90000223002AE9D10B00E7E70123E1E70023F5
:107AA000DFE70123DDE70B00DBE70123024A118951
:107AB00052228152D9E7C0460012002010B501249D
:107AC0004471446BA04710BD10B54378002B01D022
:107AD000024810BD024B9847FBE7C046FFFF00007D
:107AE000A54D0000C378083BDBB2002001229A427A
:107AF00040417047F8B504000D00C3781A00083AF9
:107B0000012A01D94D48F8BD082B25D0C26E9378C3
:107B1000002B03D0D3785620002BF4D11179090221
:107B200053795B185422A25A9BB24D209A42EAD153
:107B3000E36E9A795223E25229002000404B984785
:107B400001281DD000286CD002283ED0E378083BE5
:107B5000012B6BD93948D6E75426815BC36E981D3B
:107B6000384B98470700A25BE36E9C466244D1798C
:107B7000090293795B189BB255209F42C3D1D7E786
:107B8000E378083B0020012BBDD8002D0ED020004B
:107B90002D4B984701008004800C8F2804D02000D2
:107BA0002A4B98470020AEE70B21F8E72000284B2E
:107BB000984783049B0C3E2BA5D05423E25A023BEA
:107BC000E15C2000234B98479DE7A36C002BBDD0C0
:107BD0005223E35A204A928C9A42B7D81E4AD28C3A
:107BE0009A42B3D3237C64215B070BD50522200086
:107BF0001A4B98470423637140212000184B984783
:107C0000102080E7227C2023134323742000154B8F
:107C100098472000144B984764210028E6D0134968
:107C2000E4E74620002D00D06DE78FE72000104BE1
:107C30009847002800D066E7103064E7084000004D
:107C4000357A0000719B0000DD6F0000996900002B
:107C5000097100002977000000120020256500004E
:107C60000565000055680000E57A0000DC050000AD
:107C7000C577000010B50400052914D04620072957
:107C800016D1237C5B0709D506392000124B984793
:107C9000002809D12000114B984705E00021200061
:107CA0000D4B984700E04F2083049B0C3E2B00D0E7
:107CB00010BD637C0122134363740323637180212D
:107CC0002000074B9847074B198805222000064BD8
:107CD00098471020ECE7C046F57A00004578000090
:107CE00005650000000000202565000010B5023980
:107CF0000230014B984710BD2998000010B50400D0
:107D0000418002390230024B9847208010BDC046A6
:107D10002998000010B50400438826208B4200D02B
:107D200010BD991EA01C044B98472388834201D0A4
:107D30002620F5E70020F3E72998000070B504003D
:107D4000080015002100034B984729002000024B32
:107D5000984770BD15770100157D000070B50600CD
:107D60000C0015006280911EA01C074B98472080D4
:107D7000064B98472A0021003000054B9847040025
:107D8000044B9847200070BD299800001DE90000B1
:107D9000BDC2000035E9000070B5154BC41812785B
:107DA000E017800D23189B059B0D1B1A1B041B0C51
:107DB0003425ED1A0520AA4200D970BDE0178005D0
:107DC000800D0419A401240C2001041BA400083414
:107DD000E31808481818002904D00499064B98475E
:107DE0000020EAE701000498034B98470020E4E7ED
:107DF00000E8FFFFC410002015770100F0B5CE4663
:107E0000474680B583B0802189000523884205D08C
:107E1000180003B00CBC90469946F0BD1F4B5E881D
:107E20005D6800230021012402E00133B3421FDC1E
:107E3000200098400542F8D0013189B2F5E70135BC
:107E40003C367B88AB4211DB0123AB404246526893
:107E50001A42F4D0327AB37D01A9B08A48800A7000
:107E60004B7004222000C8470434E8E70023CFE722
:107E70001278023189001C238A42C9D3074E082296
:107E800031000A98064B98470A9C08340025034B9A
:107E90009846034B99464746D6E7C046C410002093
:107EA0001577010030B589B012781923202A02D045
:107EB000180009B030BD2C4B9C4660440523C20617
:107EC000F6D14409012CF3DC23011B1B9B00274A3C
:107ED000D318187A264B984705000C9BD91C2022F2
:107EE0006846244B9847002D3BD06B461B78312BBE
:107EF00010D91A00323A312A19D91A00643A312AB3
:107F000020D86B465B787F2B17D868461A4B98476A
:107F1000030003E06846194B984703006A46538004
:107F2000202269460C98134B98470023C0E7A0B263
:107F30006946134B98470300F0E76846114B984792
:107F40000300EBE76A33DAB20523082AE6D8AB6808
:107F5000002B04D0A0B2694698470300DEE718233F
:107F6000DCE70523A4E7C0460075FFFFC41000202E
:107F7000898E00001577010089AD0000C9880000D6
:107F8000858900001DAD0000F0B583B00D0016001E
:107F90001A8890231B029A420BD0194BC418A821AF
:107FA0002000184B984787B20520012F1AD903B03B
:107FB000F0BD154BC41858212000124B984787B2CA
:107FC0000520012FF3D858212000104B98478AB282
:107FD000089B019300962B003900FE2080020C4C78
:107FE000A047E4E7A8212000084B98478AB2089BE5
:107FF000019300962B0039000648074CA047D6E7AE
:108000000060FFFFA93D01000070FFFFB53E0100C9
:10801000C58D000000FA0300D98B000010B582B0B6
:10802000C023DB000524984202D0200002B010BD1E
:108030001378082BF9D1002909D168460A4B9847D3
:108040000400082269460498084B9847EDE7082287
:1080500004996846054B9847054B3820185E6946D9
:10806000044B98470400E0E735AE000015770100A7
:1080700000FE0300FDAF000030B583B01500A02363
:108080005B019C46604484B2A0212000114B9847BC
:1080900089B20520002901D003B030BD2B781730FC
:1080A000872BF9D9A03120000B4B9847C0B26B4603
:1080B000991D0A4B9847002806D08822010006988F
:1080C000074B984788232B706B4606330020185EB9
:1080D000E2E7C046B53E0100A93D0100215F000076
:1080E00015770100F0B583B0040015001E001A4B8F
:1080F0001B7D18209B0701D103B0F0BD6B469F1D6F
:1081000039000020154B984703000022B85E002874
:10811000F2D11800EE22D20194466444A1B2327B1F
:1081200092060DD5181DFC2319246A46D4802A789E
:108130005B1A9A4207DD6B4606330020185EDBE7C8
:1081400080235B00F0E741180898054B9847002210
:108150006B46DA80EFE7C04684160020F1BB0000D2
:1081600015770100F8B5CE46474680B5514B1B78D0
:10817000DB071CD5504C2000504B9847504A030059
:10818000581E8341507F012188431843507722892C
:108190004C4B5A814C4B9847464B1B781B0766D576
:1081A000444B1B78DB0600D47EE0002477E0474B8D
:1081B0009847041E21D0424D23005A1E93410127A7
:1081C0006A7EBA4313436B763B4E30003B4B984775
:1081D0000300581E8341687FB8431843687732898B
:1081E000384B5A81384B9847324B1B781B0748D481
:1081F000FE208002364B98473EE03648364B984783
:10820000041ED8D12F4D334B1A69EA605A896A820D
:10821000DA882A8251226A719B8E2B71254F0123A5
:1082200099463B78012213433B70254E737E4A46A4
:1082300093437376204B98461800204B98470300D1
:10824000581E8341707F4A469043184370774346D7
:108250001B896B811C4B98473B781B0711D4FE2070
:1082600080021B4B9847040006E0040012E0FE2049
:108270008002174B984704000E4A137808210B43DD
:1082800013700C4B1B78DB0609D41448144B984729
:10829000002CEAD0074A137810210B4313702000FA
:1082A0000CBC90469946F8BD0C480D4B984704000D
:1082B000F0E7C046640B002000120020D1920000BD
:1082C00084160020441100205D87000035860000E0
:1082D0009D8C000000FE030025CE000000FA030084
:1082E000018A000070B500220B4B1A600B4C0C2366
:1082F000E65E0E23E55E143200212000084B98470D
:10830000A681E5810748084B98470848084B9847DD
:108310000848094B984770BD601000204C100020A1
:108320009977010044110020E9860000841600209E
:10833000D9870000C4100020BD860000F0B5CE46ED
:10834000474680B585B006000C0015001F000023CD
:108350003B804D20002904D105B00CBC90469946C5
:10836000F0BD64212F4BF0182F4B9847020083B2C9
:108370006620002BF0D02D4949889942ECD300218A
:108380008846012B1DD964213000294B984789B2BA
:108390000A1943461B79404640791B1866209A42C9
:1083A000DADC0023039343465B6A9C46002B13D020
:1083B0006618B6B20022002301939846013399460D
:1083C00012E01204120C13019A1A920013000833DF
:1083D000164A98469044D6E743469B6A9C46E7E790
:1083E00001321900B3420DD04B1C9BB26046415C78
:1083F0000029F5D049469140404608438046494609
:108400000191EDE7019B002B09D1E4080134220022
:1084100003A92800074B98473C8000209CE743466F
:108420000393F2E7F0D8FFFFBD3E0100C410002027
:10843000B53E01001577010070B506000D1E2DD068
:1084400064211A4BC0181A4B984783B2002B27D0CF
:10845000184A52889A4225D30024012B15D9642149
:108460003000154B98478BB25D19A27AE17A521809
:108470005208954218DC5B00E26AD0180021425E87
:10848000002A01D1206BC01870BD0004000C04014B
:10849000241AA4000834074BE418E0E70020F3E7AF
:1084A0000020F1E70020EFE70020EDE7F0D8FFFF24
:1084B000BD3E0100C4100020B53E0100F0B583B000
:1084C0000D0017001E0066233380C3065B0F012BCF
:1084D00003D0032B36D000243EE0032318400128AC
:1084E00003D0022825D0002436E0344B1B68002B33
:1084F0005ED012881C888C425CD851185888814202
:108500005ADC2C1B5868041915B26B46D91D28007B
:108510002B4B98473880089B002B07D06B460733BE
:108520001B782A0008992000264DA8470023338095
:1085300012E011881300089A2800234CA0473080CD
:10854000002409E003231840012808D0022824D081
:1085500000243B885B003B80200003B0F0BD174B3C
:108560001B68002B22D00833184A914205D91849BC
:1085700008228D4200D908329B181A88002495429F
:10858000E7D33988491958888142E2DCAD1A6D0079
:108590005C68641900233380DBE7118828000D4BE9
:1085A0009847041ED5D000233380D2E70024D0E7BB
:1085B0000024D1E70024CFE70024CDE7601000209D
:1085C000459C0000A99B00003D8300000F27000090
:1085D0001F4E00003984000010B50400D82200218D
:1085E0000F4B98470F4BA3800123E3800023638147
:1085F0002361E3601E3B2387237A04221343237203
:108600002000143006220849084B984710226C239A
:10861000E254D8212000064B9847002010BDC046E8
:10862000997701004D04000030E701001577010043
:10863000FD7C000000B5B7B0D8220B4968460B4B53
:108640009847D82168460A4B9847002801D137B08F
:1086500000BD6846074B98470028F8D1D8226946E4
:108660000148054B9847F2E700FE0300157701002B
:10867000157D0000D98500005D7D000010B5040067
:10868000D821044B9847D82221000348034B984730
:1086900010BDC046FD7C000000FE03005D7D0000B3
:1086A00010B504000830044B9847002803D120007F
:1086B0004430014B984710BD418F000070B5040055
:1086C00080220021064B9847022323802100083195
:1086D0000020044DA847210044310120A84770BD67
:1086E00099770100D18E000010B50400702200219E
:1086F000154B984700232370144AE280612222819F
:10870000A382134BE382134B1A69E260DA88228258
:108710005A896282512262719B8E2371237F413A72
:108720009343022213432377627E01210A43627638
:108730002200203253780B435370074B6362802230
:1087400052006C23E25210BD997701002808000006
:10875000581B000000FE030027C0018070B5174CB5
:108760004C2200212000164B984722001C32154B4A
:10877000043323CB23C21B681360E623E370193351
:108780002371114B1B691A0AA271E3710F498223ED
:108790005B00CB58E36084235B00CB5823618623C6
:1087A0005B00CB586361383120002C301D22084B10
:1087B00098474A23074AD25AE25270BDB4110020AA
:1087C000997701004411002000FE030000120020F0
:1087D0006D79010060FF030070B582B00400061DD2
:1087E000082231006846294DA84748220021200070
:1087F000274B984704232370082269463000A84776
:108800003823244AD35C013B5A1E93412249013349
:108810004A7D0320824313434B758A7D0F23134007
:10882000402213438B7538231A4AD35C202B1ED069
:1088300000221A4B1A800022194B1A80194B1B7800
:10884000DB0705D5144A917F80235B420B43937766
:10885000154B1B88A384114B1B886384134B1B8807
:10886000E384134B38229B5E638002B070BD0E4AD6
:108870001388013313800A4B1A880E4B9A42DAD1BF
:108880000A4A138801331380D5E7C04615770100E3
:108890009977010000040040841600208016002013
:1088A000781600203C150020821600207E1600203D
:1088B00000FE03006996000000238361C361014A42
:1088C00013807047F013002000B5FDB00023437102
:1088D00003780A2B1ED0DAB20A2A10D90D2B22D027
:1088E0000E2B3AD1C3791B028079C01800B21C4B01
:1088F00098471C4B1A8F1C4B5A807DB000BD012B32
:108900002BD183790D20A32BF7D10222174B9A701C
:108910000020F2E76846164B98470028EDD16846DC
:10892000144B9847E9E78379DB0704D50023124A03
:1089300013800D4A538483799B0704D500230F4A83
:108940001380094A9384837900205B07D5D50023DF
:108950000B4A1380044AD384CFE70520CDE7C046F5
:10896000A1B0000000FE0300841600204C1000207F
:10897000D18F00001D91000080160020821600207B
:108980007E16002010B502000B78342B1ED0D8B212
:1089900034280DD8332B10D10023012A0FD91C788D
:1089A0008B7905209C4207D1D0B2124B984703E047
:1089B000DBB20620362B00D810BD1020FCE71301D7
:1089C0009B1A9B0008330C481B18E8E7002301287A
:1089D00008D91C788B7905209C42EDD1D0B2074B89
:1089E0009847E9E703011B1A9B00083302481B184C
:1089F000EFE7C046418B0000C41000208D8B0000C3
:108A0000F0B5ABB007005137FF3704000F4E104DE3
:108A1000A82221006846B047A8216846A847002838
:108A200005D1A834A742F3D100202BB0F0BDFF231D
:108A30006A469371A8216846064B9847A822694662
:108A40002000054B98470028EBD0EEE71577010092
:108A5000157D0000FD7C0000BDC2000010B5172987
:108A600011D8A8244C430419002A02D0A3799342B8
:108A70000BD1A8212000064B984743425841404261
:108A80000440200010BD0024FBE70024F9E7C046A5
:108A9000157D000010B5044B9847002801D0083020
:108AA00010BD0020FCE7C0465D8A000070B50500DF
:108AB0000E001400A8211000044B9847A820704312
:108AC0004019A8222100024B984770BDFD7C000090
:108AD0005D7D0000F0B5ADB000900F0001921C006C
:108AE00032AB1D8833AB1E780520172901D92DB074
:108AF000F0BD1430502CFAD8A822002102A80D4B4A
:108B000098472200349904A80B4B9847002E0BD1AC
:108B100002AB1D716A4612799A715F71B9B21A007F
:108B20000098064B9847E2E72200349918A8024BB8
:108B30009847EDE79977010015770100AD8A0000AD
:108B400030B5ABB004000520172C01D92BB030BDD7
:108B5000A82161430A4B9C466144A8226846094DFE
:108B6000A847502202A916A8A8476B46DB79012224
:108B700013436A46D371A1B20148034B9847E5E716
:108B800000FA030015770100AD8A000030B5ABB0E4
:108B900004000520172C01D92BB030BDA82161435A
:108BA0000A4B9C466144CB790020DB07F4D5A82210
:108BB0006846074DA847502216A902A8A847A1B2A7
:108BC0006A460248034B9847E6E7C04600FA0300AE
:108BD00015770100AD8A0000F0B5DE4657464E46D7
:108BE0004546E0B585B0070016000E9A1278A82415
:108BF000A41B0020A2423CD8A8254D437D19002B80
:108C00003ED0224CA82229002000214FB8472378CB
:108C10009B4663789A46A3789946E37898462379E9
:108C2000009362790192A1790291E0790390A019F1
:108C30000E9E32780F99B8475E462670564666708B
:108C40004E46A6704646E6706B461B7823716B460F
:108C50001B7963716B461B7AA3716B461B7BE371B7
:108C6000A82120000B4B9847A822210028000A4B7E
:108C7000984705B03CBC90469946A246AB46F0BD2D
:108C8000A9190F98024B98470020F2E7D00E002058
:108C900015770100FD7C0000BDC20000F0B597B063
:108CA0000700B0370400104E104D582221006846CE
:108CB000B04758216846A847002805D15834A74234
:108CC000F3D1002017B0F0BDFF236A4693715821FD
:108CD0006846074B9847582269462000054B98473D
:108CE0000028EBD0EEE7C04615770100157D0000A7
:108CF000FD7C0000BDC2000010B5172911D8582412
:108D00004C430419002A02D0A37993420BD1582175
:108D10002000064B984743425841404204402000FF
:108D200010BD0024FBE70024F9E7C046157D0000D4
:108D300010B5044B9847002801D0083010BD002022
:108D4000FCE7C046F98C000070B505000E00140069
:108D500058211000044B984758207043401958225E
:108D60002100024B984770BDFD7C00005D7D000036
:108D7000F0B599B001900F0016001C001EAB1D88C5
:108D80000520172901D919B0F0BD1430502CFAD89C
:108D90005822002102A8084B984722001F9904A8D6
:108DA000064B984702AB1D719E715F71B9B21A00F4
:108DB0000198034B9847E6E7997701001577010082
:108DC000498D0000F0B5DE4657464E464546E0B5B3
:108DD00085B0070016000E9A12785824A41B0020B4
:108DE000A2423CD858254D437D19002B3ED0224C41
:108DF000582229002000214FB84723789B466378EA
:108E00009A46A3789946E378984623790093627945
:108E10000192A1790291E0790390A0190E9E327817
:108E20000F99B8475E462670564666704E46A67045
:108E30004646E6706B461B7823716B461B7963715F
:108E40006B461B7AA3716B461B7BE3715821200094
:108E50000B4B98475822210028000A4B984705B031
:108E60003CBC90469946A246AB46F0BDA9190F9866
:108E7000024B98470020F2E7D00E00201577010042
:108E8000FD7C0000BDC2000010B50E4B1C88002CFC
:108E900016DD0D4B1B7B83420ED00C4A00230133A1
:108EA000A3420BDA117818328142F8D15800C01869
:108EB000C000054BC01810BD0023F7E70020FAE7FB
:108EC0000020F8E720EB0100F0EA010014EB0100BC
:108ED00070B505000C003C2200212000014B984792
:108EE000A57370BD99770100F8B504000E00150058
:108EF0001820012C00D9F8BD3C22002128000D4B80
:108F00009847AC73B0B20C4B9847002810D00300C0
:108F10000C332A00C2CBC2C22B7B0F229343022206
:108F200013432B7303680200290020009847E2E7EF
:108F30000248E0E799770100898E00001780FFFF63
:108F400010B5817B2E2359430279002A0BD01E4B8A
:108F5000CB18436292B22D2A02D91C4A100010BDD0
:108F60008A1893B200E00B004279002A0AD0164C0E
:108F70001C1984629B189BB25A1A92B22D2A01D9ED
:108F8000124AEBE7DA0701D501339BB2827A002A55
:108F90000AD00D4C1C19C4629B189BB25A1A92B28B
:108FA0002D2A01D9094AD9E7C47A0022002CD5D04C
:108FB000054A9A180263611A5B189BB200222E2B95
:108FC000CCD9024ACAE7C046681000201C40000005
:108FD000F8B5DE4657464E464546E0B50400F82251
:108FE00052000021364EB04701252571FC23E5547F
:108FF000344B1B6920003830334A3449344FB8476A
:10900000258105236381200010300722FF21B0470E
:10901000FF27E77520001C300722FF21B0472323DC
:10902000E754A584DB33E38401229C3B9946A433B7
:10903000984658200F2105239C46102700E0013256
:10904000012A2BD14B464546E552235C8B436546AE
:109050002B43DBB23B43DBB26025AB431F352B40D8
:109060002354250058356B780326B3430536B343A4
:109070000B40883E33436B7002239A465833554663
:10908000E55400235B256355573DAB4658355E4696
:1090900066550235635501356355D0E7032ACEDDA9
:1090A000F82120000B4DA8472000F830F821A847F0
:1090B00000203CBC90469946A246AB46F8BDC0464F
:1090C0009977010000FE030030E7010038E7010056
:1090D00071780100FD7C000010B50400F821044BFC
:1090E0009847F8222100FF208002024B984710BDCC
:1090F000FD7C0000BDC2000010B50400F821044B47
:109100009847F82221000348034B984710BDC046FA
:10911000FD7C000000FD0300BDC2000010B504008E
:10912000044B9847002800D010BD2000F830024BB7
:109130009847F9E7D9900000F9900000F0B583B0A6
:1091400004000379012B05D0FC23C35C2320012BF1
:1091500000D0A6E02389013B9BB20021FD2B02D960
:109160000123238101316389013B1B041BD4A28CA1
:10917000531E9BB2FD2B03D8E38C9A4200D892E099
:109180000123A384E28C531E9BB2FD2B01D8002A3D
:109190000DD1FE23E3840121270020001830FF2594
:1091A000012301931AE0052363810121DFE70121F7
:1091B000F2E70132B24207D0137C123BDBB2EC2B58
:1091C000F7D815740199F4E7FB7D123BDBB2EC2B69
:1091D00001D8FD7501210C37B84202D0FE1D3A00BE
:1091E000EAE76223E35A013B324A9BB2934204D935
:1091F000314B1A886223E25201215823E35C1B079A
:109200001B0F072B0ADD2C4B5A8858210F231A40BD
:10921000635C0F2083431343635457395823E35C43
:109220005B069B0F022B0BDD234BDA8858210323AF
:109230001A405201635C60208343134363545739DF
:109240005923E35CAF2B24D91B4BD9892200583218
:10925000090150780F2303400B4353705A23E35CFA
:10926000023B7E2B03D9144B1A8A5A23E254134B28
:109270001B6920003830124A1249134DA847F821C3
:109280002000124DA8472000F830F821A8470320FD
:1092900007E05A23E35C023B7E2BE4D80020002940
:1092A000E5D103B0F0BD013B9BB2FD2B00D970E7C7
:1092B00072E7C046DB0500000400002000FE03004A
:1092C00030E7010038E7010071780100FD7C000003
:1092D00070B50500F8220100FF2080020E4B984770
:1092E000041E03D028000D4B984713E02900F831E5
:1092F000F8220B48084B9847041EF3D12B79012B19
:1093000004D0FC23EB5C2334012BEBD12800054B6C
:1093100098470400200070BD3D7D0000D18F000003
:1093200000FD03003D910000F0B583B00092019371
:109330000524032802D9200003B0F0BD124C678831
:1093400002002018857BA94212D300240E4B013461
:10935000E4B2A6B2BE4214D82001001B8000181847
:109360008018807B2818C0B2884203D80500EEE739
:1093700000260025009B1E80491B019B19800024AC
:10938000D9E70524D7E7C046C4100020F0B503286C
:109390002BD8060013189B798B4228D9012811D9A4
:1093A0000024022806DD147A032803DD557A6B00B9
:1093B0005B19E418136B0F4A105C48430019400016
:1093C0001818F0BD00280EDD00230024094DAC461E
:1093D000D518AF7965465D5D7D43641901339E42C2
:1093E000F6DCD36AE7E70024FBE70020E9E700208A
:1093F000E7E7C04640E70100F0B5D6464F4646468F
:10940000C0B504000F0088422BDC05012D1AAD0009
:109410000835184BED18184B9846184B9946154BC4
:109420009A4606E029003000C84701343C35BC426A
:1094300017DCE6B23000C047431EDBB2FD2BF1D88B
:109440000123A340524652681343524653602A00F8
:10945000010030000A4B9847002805D1054B5C807D
:10946000E3E70448074B98471CBC90469946A24640
:10947000F0BDC046C410002011CE0000D18E000007
:10948000E98E0000A186000030B59A23C25A0D492A
:1094900003009C33A43009E0FF2D01D0013A92B2C1
:1094A000002A0DD03C310433834207D00D7A1C785A
:1094B000A542F1D0FF2CF3D0852000E0002030BD84
:1094C0000020FCE7C4100020F0B5D646474680B522
:1094D00083B01F4B5B880227012B09D900251D4C47
:1094E00000230193013398460E339A46082616E06E
:1094F0000133DFB2002FF1DC00230193019803B0A8
:109500000CBC90469A46F0BD431E9841637B424690
:109510009343184360733C340135BD42EEDA636B0C
:10952000002BF8D00021200098470028ECD0E082E2
:10953000237B524693433343237303005A1E9341C4
:10954000627B41468A43134363730190E3E7C0465D
:10955000C4100020CC100020F0B5CE4600B582B07B
:109560001D4B5B880227012B07D900261B4C0023CB
:1095700001930F339946082515E00133DFB2002F20
:10958000F3DC00230193019802B004BC9146F0BDC6
:10959000431E9841637B01229343184360733C341C
:1095A0000136BE42EFDA636B002BF8D001212000B8
:1095B00098470028ECD0E082237B4A4693432B4314
:1095C00023730200531E9A41637B01218B43134393
:1095D00063730190E3E7C046C4100020CC10002064
:1095E000F0B5D646474680B583B01F4B5B8802274F
:1095F000012B09D900251D4C002301930133984606
:109600000E339A46082616E00133DFB2002FF1DC54
:1096100000230193019803B00CBC90469A46F0BD1C
:10962000431E9841637B42469343184360733C3426
:109630000135BD42EEDA636B002BF8D00221200029
:1096400098470028ECD0E082237B52469343334373
:10965000237303005A1E9341627B41468A4313439E
:1096600063730190E3E7C046C4100020CC100020D3
:1096700070B50E4B5B880226012B02D900250C4CDD
:1096800009E00133DEB2002EF8DC00200BE03C34B0
:109690000135B54208DA636B002BF8D003212000B6
:1096A00098470028F3D070BD0020FCE7C4100020CC
:1096B000CC10002070B50D00C40014191421635E95
:1096C000AB4201D0012800D970BD002D18D0E58231
:1096D000537B02210B435373218B002903D0DBB250
:1096E000042003435373137B0F2083430820034359
:1096F0001373013121830320074B9847A582E3E7C9
:10970000537B02218B435373137B0D318B43012118
:109710000B431373F2E7C046B9990000F0B5D64683
:109720004F464646C0B582B0814600230370324D95
:109730006E8808352F0000249846AA4605E03B00B5
:1097400006E001343C37A6421ADB012CF7DD00238A
:109750001D001B78013BDBB2FD2BF2D8BB6B002B4D
:10976000EFD008212800AB6B98472A0005000100C4
:109770000120224B9847002DE3D001239846E0E7D3
:109780005546002400230193370005E02A0006E037
:1097900001343C35A74219DB012CF7DD0022100013
:1097A0001378013BDBB2FD2BF2D8936B002BEFD08B
:1097B0000721009298470600009A010000200F4BF5
:1097C0009847002EE4D001230193E1E74B461B7834
:1097D000002B04D10A4B00229B5E032B05D002B064
:1097E0001CBC90469946A246F0BD4346019A1343DD
:1097F000F5D1044B9847F2E7C4100020B59600005D
:10980000F0130020D599000010B5054B02221A80F4
:1098100000225A805A6001210020024B984710BD57
:10982000C4100020F993000000290BD00200411859
:10983000002310781B189BB201328A42F9D1D84319
:1098400080B270470023FAE70022054B1A800123FB
:1098500004490B8004490A80044A13807047C046BB
:10986000F21300206A0B0020F0130020660B00208A
:1098700010B50400064B1B791B0700D510BD012055
:10988000044B9847044B1C800022044B1A80F5E7D8
:109890004C1000209DCB00006A0B00206C0B0020B8
:1098A00000B2054B00229B5E834204D0024B18801D
:1098B0000122024B1A807047F21300206A0B00202D
:1098C00000B2054B00229B5E834204D0024B1880FD
:1098D0000122024B1A807047F0130020660B002013
:1098E00010B52D4A1388013B1BB21380002B26D1E3
:1098F0002A4B1B791B0716D5294B00229B5E012B97
:1099000015D0032B17D00122264B1A80264B00229C
:109910009A5E002A06D025490B88013B1BB20B80BA
:10992000002B34D010BD0120214B9847E4E70322DF
:109930001C4B1A80EAE705221A4B1A80E6E7194BFE
:109940000020185E0028E1D0144B1B791B07DDD4E2
:10995000013880B2134C208001231840144B9847E3
:109960000022A35E002BD1D10D4B00229B5E022B67
:1099700009D005DC002BC9DB0A22074B1A80C5E79A
:10998000032BF9D0C2E70122034B1A80BEE7520035
:10999000013A084B1A80C5E76A0B00204C100020E2
:1099A000F21300206C0B0020F0130020660B002047
:1099B0009DCB0000680B002010B5044B00229B5E7D
:1099C000002B00D010BD024B9847FBE7F01300209E
:1099D000C198000010B50020014B984710BDC0464B
:1099E000C198000070B504000E001500102200217F
:1099F000044B9847E66025810023E380013DA58064
:109A0000638070BD997701000022C2800389013B09
:109A10008380428070470000F8B504000E001700F4
:109A20000378DB0720D4E3881D1C9BB2BB4200D91E
